{
  "contractName": "StarNotaryV2",
  "abi": [
    {
      "inputs": [],
      "stateMutability": "nonpayable",
      "type": "constructor"
    },
    {
      "anonymous": false,
      "inputs": [
        {
          "indexed": true,
          "internalType": "address",
          "name": "owner",
          "type": "address"
        },
        {
          "indexed": true,
          "internalType": "address",
          "name": "approved",
          "type": "address"
        },
        {
          "indexed": true,
          "internalType": "uint256",
          "name": "tokenId",
          "type": "uint256"
        }
      ],
      "name": "Approval",
      "type": "event"
    },
    {
      "anonymous": false,
      "inputs": [
        {
          "indexed": true,
          "internalType": "address",
          "name": "owner",
          "type": "address"
        },
        {
          "indexed": true,
          "internalType": "address",
          "name": "operator",
          "type": "address"
        },
        {
          "indexed": false,
          "internalType": "bool",
          "name": "approved",
          "type": "bool"
        }
      ],
      "name": "ApprovalForAll",
      "type": "event"
    },
    {
      "anonymous": false,
      "inputs": [
        {
          "indexed": true,
          "internalType": "address",
          "name": "from",
          "type": "address"
        },
        {
          "indexed": true,
          "internalType": "address",
          "name": "to",
          "type": "address"
        },
        {
          "indexed": true,
          "internalType": "uint256",
          "name": "tokenId",
          "type": "uint256"
        }
      ],
      "name": "Transfer",
      "type": "event"
    },
    {
      "inputs": [
        {
          "internalType": "address",
          "name": "to",
          "type": "address"
        },
        {
          "internalType": "uint256",
          "name": "tokenId",
          "type": "uint256"
        }
      ],
      "name": "approve",
      "outputs": [],
      "stateMutability": "nonpayable",
      "type": "function"
    },
    {
      "inputs": [
        {
          "internalType": "address",
          "name": "owner",
          "type": "address"
        }
      ],
      "name": "balanceOf",
      "outputs": [
        {
          "internalType": "uint256",
          "name": "",
          "type": "uint256"
        }
      ],
      "stateMutability": "view",
      "type": "function"
    },
    {
      "inputs": [
        {
          "internalType": "uint256",
          "name": "tokenId",
          "type": "uint256"
        }
      ],
      "name": "getApproved",
      "outputs": [
        {
          "internalType": "address",
          "name": "",
          "type": "address"
        }
      ],
      "stateMutability": "view",
      "type": "function"
    },
    {
      "inputs": [
        {
          "internalType": "address",
          "name": "owner",
          "type": "address"
        },
        {
          "internalType": "address",
          "name": "operator",
          "type": "address"
        }
      ],
      "name": "isApprovedForAll",
      "outputs": [
        {
          "internalType": "bool",
          "name": "",
          "type": "bool"
        }
      ],
      "stateMutability": "view",
      "type": "function"
    },
    {
      "inputs": [],
      "name": "name",
      "outputs": [
        {
          "internalType": "string",
          "name": "",
          "type": "string"
        }
      ],
      "stateMutability": "view",
      "type": "function"
    },
    {
      "inputs": [
        {
          "internalType": "uint256",
          "name": "tokenId",
          "type": "uint256"
        }
      ],
      "name": "ownerOf",
      "outputs": [
        {
          "internalType": "address",
          "name": "",
          "type": "address"
        }
      ],
      "stateMutability": "view",
      "type": "function"
    },
    {
      "inputs": [
        {
          "internalType": "address",
          "name": "from",
          "type": "address"
        },
        {
          "internalType": "address",
          "name": "to",
          "type": "address"
        },
        {
          "internalType": "uint256",
          "name": "tokenId",
          "type": "uint256"
        }
      ],
      "name": "safeTransferFrom",
      "outputs": [],
      "stateMutability": "nonpayable",
      "type": "function"
    },
    {
      "inputs": [
        {
          "internalType": "address",
          "name": "from",
          "type": "address"
        },
        {
          "internalType": "address",
          "name": "to",
          "type": "address"
        },
        {
          "internalType": "uint256",
          "name": "tokenId",
          "type": "uint256"
        },
        {
          "internalType": "bytes",
          "name": "data",
          "type": "bytes"
        }
      ],
      "name": "safeTransferFrom",
      "outputs": [],
      "stateMutability": "nonpayable",
      "type": "function"
    },
    {
      "inputs": [
        {
          "internalType": "address",
          "name": "operator",
          "type": "address"
        },
        {
          "internalType": "bool",
          "name": "approved",
          "type": "bool"
        }
      ],
      "name": "setApprovalForAll",
      "outputs": [],
      "stateMutability": "nonpayable",
      "type": "function"
    },
    {
      "inputs": [
        {
          "internalType": "uint256",
          "name": "",
          "type": "uint256"
        }
      ],
      "name": "starsForSale",
      "outputs": [
        {
          "internalType": "uint256",
          "name": "",
          "type": "uint256"
        }
      ],
      "stateMutability": "view",
      "type": "function"
    },
    {
      "inputs": [
        {
          "internalType": "bytes4",
          "name": "interfaceId",
          "type": "bytes4"
        }
      ],
      "name": "supportsInterface",
      "outputs": [
        {
          "internalType": "bool",
          "name": "",
          "type": "bool"
        }
      ],
      "stateMutability": "view",
      "type": "function"
    },
    {
      "inputs": [],
      "name": "symbol",
      "outputs": [
        {
          "internalType": "string",
          "name": "",
          "type": "string"
        }
      ],
      "stateMutability": "view",
      "type": "function"
    },
    {
      "inputs": [
        {
          "internalType": "uint256",
          "name": "",
          "type": "uint256"
        }
      ],
      "name": "tokenIdToStarInfo",
      "outputs": [
        {
          "internalType": "string",
          "name": "name",
          "type": "string"
        }
      ],
      "stateMutability": "view",
      "type": "function"
    },
    {
      "inputs": [
        {
          "internalType": "uint256",
          "name": "tokenId",
          "type": "uint256"
        }
      ],
      "name": "tokenURI",
      "outputs": [
        {
          "internalType": "string",
          "name": "",
          "type": "string"
        }
      ],
      "stateMutability": "view",
      "type": "function"
    },
    {
      "inputs": [
        {
          "internalType": "address",
          "name": "from",
          "type": "address"
        },
        {
          "internalType": "address",
          "name": "to",
          "type": "address"
        },
        {
          "internalType": "uint256",
          "name": "tokenId",
          "type": "uint256"
        }
      ],
      "name": "transferFrom",
      "outputs": [],
      "stateMutability": "nonpayable",
      "type": "function"
    },
    {
      "inputs": [
        {
          "internalType": "string",
          "name": "_name",
          "type": "string"
        },
        {
          "internalType": "uint256",
          "name": "_tokenId",
          "type": "uint256"
        }
      ],
      "name": "createStar",
      "outputs": [],
      "stateMutability": "nonpayable",
      "type": "function"
    },
    {
      "inputs": [
        {
          "internalType": "uint256",
          "name": "_tokenId",
          "type": "uint256"
        },
        {
          "internalType": "uint256",
          "name": "_price",
          "type": "uint256"
        }
      ],
      "name": "putStarUpForSale",
      "outputs": [],
      "stateMutability": "nonpayable",
      "type": "function"
    },
    {
      "inputs": [
        {
          "internalType": "uint256",
          "name": "_tokenId",
          "type": "uint256"
        }
      ],
      "name": "buyStar",
      "outputs": [],
      "stateMutability": "payable",
      "type": "function"
    }
  ],
  "bytecode": "0x60806040523480156200001157600080fd5b506040518060400160405280601e81526020017f537461724e6f746172792056657273696f6e2032202d204552432d37323100008152506040518060400160405280600381526020017f534e32000000000000000000000000000000000000000000000000000000000081525081600090816200008f919062000324565b508060019081620000a1919062000324565b5050506200040b565b600081519050919050565b7f4e487b7100000000000000000000000000000000000000000000000000000000600052604160045260246000fd5b7f4e487b7100000000000000000000000000000000000000000000000000000000600052602260045260246000fd5b600060028204905060018216806200012c57607f821691505b602082108103620001425762000141620000e4565b5b50919050565b60008190508160005260206000209050919050565b60006020601f8301049050919050565b600082821b905092915050565b600060088302620001ac7fffffffffffffffffffffffffffffffffffffffffffffffffffffffffffffffff826200016d565b620001b886836200016d565b95508019841693508086168417925050509392505050565b6000819050919050565b6000819050919050565b600062000205620001ff620001f984620001d0565b620001da565b620001d0565b9050919050565b6000819050919050565b6200022183620001e4565b6200023962000230826200020c565b8484546200017a565b825550505050565b600090565b6200025062000241565b6200025d81848462000216565b505050565b5b8181101562000285576200027960008262000246565b60018101905062000263565b5050565b601f821115620002d4576200029e8162000148565b620002a9846200015d565b81016020851015620002b9578190505b620002d1620002c8856200015d565b83018262000262565b50505b505050565b600082821c905092915050565b6000620002f960001984600802620002d9565b1980831691505092915050565b6000620003148383620002e6565b9150826002028217905092915050565b6200032f82620000aa565b67ffffffffffffffff8111156200034b576200034a620000b5565b5b62000357825462000113565b6200036482828562000289565b600060209050601f8311600181146200039c576000841562000387578287015190505b62000393858262000306565b86555062000403565b601f198416620003ac8662000148565b60005b82811015620003d657848901518255600182019150602085019450602081019050620003af565b86831015620003f65784890151620003f2601f891682620002e6565b8355505b6001600288020188555050505b505050505050565b612ea7806200041b6000396000f3fe6080604052600436106101095760003560e01c806342842e0e116100955780639697c0a1116100645780639697c0a114610392578063a22cb465146103bb578063b88d4fde146103e4578063c87b56dd1461040d578063e985e9c51461044a57610109565b806342842e0e146102c45780636352211e146102ed57806370a082311461032a57806395d89b411461036757610109565b8063095ea7b3116100dc578063095ea7b3146101f05780631967fd981461021957806323b872dd146102565780632f1c34ef1461027f578063316a43611461029b57610109565b806301ffc9a71461010e5780630564b1301461014b57806306fdde0314610188578063081812fc146101b3575b600080fd5b34801561011a57600080fd5b5061013560048036038101906101309190611ad7565b610487565b6040516101429190611b1f565b60405180910390f35b34801561015757600080fd5b50610172600480360381019061016d9190611b70565b610569565b60405161017f9190611bac565b60405180910390f35b34801561019457600080fd5b5061019d610581565b6040516101aa9190611c57565b60405180910390f35b3480156101bf57600080fd5b506101da60048036038101906101d59190611b70565b610613565b6040516101e79190611cba565b60405180910390f35b3480156101fc57600080fd5b5061021760048036038101906102129190611d01565b610659565b005b34801561022557600080fd5b50610240600480360381019061023b9190611b70565b610770565b60405161024d9190611c57565b60405180910390f35b34801561026257600080fd5b5061027d60048036038101906102789190611d41565b610816565b005b61029960048036038101906102949190611b70565b610876565b005b3480156102a757600080fd5b506102c260048036038101906102bd9190611d94565b610a49565b005b3480156102d057600080fd5b506102eb60048036038101906102e69190611d41565b610ae5565b005b3480156102f957600080fd5b50610314600480360381019061030f9190611b70565b610b05565b6040516103219190611cba565b60405180910390f35b34801561033657600080fd5b50610351600480360381019061034c9190611dd4565b610bb6565b60405161035e9190611bac565b60405180910390f35b34801561037357600080fd5b5061037c610c6d565b6040516103899190611c57565b60405180910390f35b34801561039e57600080fd5b506103b960048036038101906103b49190611f36565b610cff565b005b3480156103c757600080fd5b506103e260048036038101906103dd9190611fbe565b610d4e565b005b3480156103f057600080fd5b5061040b6004803603810190610406919061209f565b610d64565b005b34801561041957600080fd5b50610434600480360381019061042f9190611b70565b610dc6565b6040516104419190611c57565b60405180910390f35b34801561045657600080fd5b50610471600480360381019061046c9190612122565b610e2e565b60405161047e9190611b1f565b60405180910390f35b60007f80ac58cd000000000000000000000000000000000000000000000000000000007bffffffffffffffffffffffffffffffffffffffffffffffffffffffff1916827bffffffffffffffffffffffffffffffffffffffffffffffffffffffff1916148061055257507f5b5e139f000000000000000000000000000000000000000000000000000000007bffffffffffffffffffffffffffffffffffffffffffffffffffffffff1916827bffffffffffffffffffffffffffffffffffffffffffffffffffffffff1916145b80610562575061056182610ec2565b5b9050919050565b60076020528060005260406000206000915090505481565b60606000805461059090612191565b80601f01602080910402602001604051908101604052809291908181526020018280546105bc90612191565b80156106095780601f106105de57610100808354040283529160200191610609565b820191906000526020600020905b8154815290600101906020018083116105ec57829003601f168201915b5050505050905090565b600061061e82610f2c565b6004600083815260200190815260200160002060009054906101000a900473ffffffffffffffffffffffffffffffffffffffff169050919050565b600061066482610b05565b90508073ffffffffffffffffffffffffffffffffffffffff168373ffffffffffffffffffffffffffffffffffffffff16036106d4576040517f08c379a00000000000000000000000000000000000000000000000000000000081526004016106cb90612234565b60405180910390fd5b8073ffffffffffffffffffffffffffffffffffffffff166106f3610f77565b73ffffffffffffffffffffffffffffffffffffffff16148061072257506107218161071c610f77565b610e2e565b5b610761576040517f08c379a0000000000000000000000000000000000000000000000000000000008152600401610758906122c6565b60405180910390fd5b61076b8383610f7f565b505050565b600660205280600052604060002060009150905080600001805461079390612191565b80601f01602080910402602001604051908101604052809291908181526020018280546107bf90612191565b801561080c5780601f106107e15761010080835404028352916020019161080c565b820191906000526020600020905b8154815290600101906020018083116107ef57829003601f168201915b5050505050905081565b610827610821610f77565b82611038565b610866576040517f08c379a000000000000000000000000000000000000000000000000000000000815260040161085d90612358565b60405180910390fd5b6108718383836110cd565b505050565b60006007600083815260200190815260200160002054116108cc576040517f08c379a00000000000000000000000000000000000000000000000000000000081526004016108c3906123c4565b60405180910390fd5b60006007600083815260200190815260200160002054905060006108ef83610b05565b9050813411610933576040517f08c379a000000000000000000000000000000000000000000000000000000000815260040161092a90612430565b60405180910390fd5b3073ffffffffffffffffffffffffffffffffffffffff166323b872dd8233866040518463ffffffff1660e01b815260040161097093929190612450565b600060405180830381600087803b15801561098a57600080fd5b505af115801561099e573d6000803e3d6000fd5b505050508073ffffffffffffffffffffffffffffffffffffffff166108fc839081150290604051600060405180830381858888f193505050501580156109e8573d6000803e3d6000fd5b5081341115610a44573373ffffffffffffffffffffffffffffffffffffffff166108fc8334610a1791906124b6565b9081150290604051600060405180830381858888f19350505050158015610a42573d6000803e3d6000fd5b505b505050565b3373ffffffffffffffffffffffffffffffffffffffff16610a6983610b05565b73ffffffffffffffffffffffffffffffffffffffff1614610abf576040517f08c379a0000000000000000000000000000000000000000000000000000000008152600401610ab69061255c565b60405180910390fd5b806007600084815260200190815260200160002081905550610ae13083610659565b5050565b610b0083838360405180602001604052806000815250610d64565b505050565b6000806002600084815260200190815260200160002060009054906101000a900473ffffffffffffffffffffffffffffffffffffffff169050600073ffffffffffffffffffffffffffffffffffffffff168173ffffffffffffffffffffffffffffffffffffffff1603610bad576040517f08c379a0000000000000000000000000000000000000000000000000000000008152600401610ba4906125c8565b60405180910390fd5b80915050919050565b60008073ffffffffffffffffffffffffffffffffffffffff168273ffffffffffffffffffffffffffffffffffffffff1603610c26576040517f08c379a0000000000000000000000000000000000000000000000000000000008152600401610c1d9061265a565b60405180910390fd5b600360008373ffffffffffffffffffffffffffffffffffffffff1673ffffffffffffffffffffffffffffffffffffffff168152602001908152602001600020549050919050565b606060018054610c7c90612191565b80601f0160208091040260200160405190810160405280929190818152602001828054610ca890612191565b8015610cf55780601f10610cca57610100808354040283529160200191610cf5565b820191906000526020600020905b815481529060010190602001808311610cd857829003601f168201915b5050505050905090565b6000604051806020016040528084815250905080600660008481526020019081526020016000206000820151816000019081610d3b9190612826565b50905050610d493383611333565b505050565b610d60610d59610f77565b838361150c565b5050565b610d75610d6f610f77565b83611038565b610db4576040517f08c379a0000000000000000000000000000000000000000000000000000000008152600401610dab90612358565b60405180910390fd5b610dc084848484611678565b50505050565b6060610dd182610f2c565b6000610ddb6116d4565b90506000815111610dfb5760405180602001604052806000815250610e26565b80610e05846116eb565b604051602001610e16929190612934565b6040516020818303038152906040525b915050919050565b6000600560008473ffffffffffffffffffffffffffffffffffffffff1673ffffffffffffffffffffffffffffffffffffffff16815260200190815260200160002060008373ffffffffffffffffffffffffffffffffffffffff1673ffffffffffffffffffffffffffffffffffffffff16815260200190815260200160002060009054906101000a900460ff16905092915050565b60007f01ffc9a7000000000000000000000000000000000000000000000000000000007bffffffffffffffffffffffffffffffffffffffffffffffffffffffff1916827bffffffffffffffffffffffffffffffffffffffffffffffffffffffff1916149050919050565b610f358161184b565b610f74576040517f08c379a0000000000000000000000000000000000000000000000000000000008152600401610f6b906125c8565b60405180910390fd5b50565b600033905090565b816004600083815260200190815260200160002060006101000a81548173ffffffffffffffffffffffffffffffffffffffff021916908373ffffffffffffffffffffffffffffffffffffffff160217905550808273ffffffffffffffffffffffffffffffffffffffff16610ff283610b05565b73ffffffffffffffffffffffffffffffffffffffff167f8c5be1e5ebec7d5bd14f71427d1e84f3dd0314c0f7b2291e5b200ac8c7c3b92560405160405180910390a45050565b60008061104483610b05565b90508073ffffffffffffffffffffffffffffffffffffffff168473ffffffffffffffffffffffffffffffffffffffff16148061108657506110858185610e2e565b5b806110c457508373ffffffffffffffffffffffffffffffffffffffff166110ac84610613565b73ffffffffffffffffffffffffffffffffffffffff16145b91505092915050565b8273ffffffffffffffffffffffffffffffffffffffff166110ed82610b05565b73ffffffffffffffffffffffffffffffffffffffff1614611143576040517f08c379a000000000000000000000000000000000000000000000000000000000815260040161113a906129ca565b60405180910390fd5b600073ffffffffffffffffffffffffffffffffffffffff168273ffffffffffffffffffffffffffffffffffffffff16036111b2576040517f08c379a00000000000000000000000000000000000000000000000000000000081526004016111a990612a5c565b60405180910390fd5b6111bd8383836118b7565b6111c8600082610f7f565b6001600360008573ffffffffffffffffffffffffffffffffffffffff1673ffffffffffffffffffffffffffffffffffffffff168152602001908152602001600020600082825461121891906124b6565b925050819055506001600360008473ffffffffffffffffffffffffffffffffffffffff1673ffffffffffffffffffffffffffffffffffffffff168152602001908152602001600020600082825461126f9190612a7c565b92505081905550816002600083815260200190815260200160002060006101000a81548173ffffffffffffffffffffffffffffffffffffffff021916908373ffffffffffffffffffffffffffffffffffffffff160217905550808273ffffffffffffffffffffffffffffffffffffffff168473ffffffffffffffffffffffffffffffffffffffff167fddf252ad1be2c89b69c2b068fc378daa952ba7f163c4a11628f55a4df523b3ef60405160405180910390a461132e8383836118bc565b505050565b600073ffffffffffffffffffffffffffffffffffffffff168273ffffffffffffffffffffffffffffffffffffffff16036113a2576040517f08c379a000000000000000000000000000000000000000000000000000000000815260040161139990612afc565b60405180910390fd5b6113ab8161184b565b156113eb576040517f08c379a00000000000000000000000000000000000000000000000000000000081526004016113e290612b68565b60405180910390fd5b6113f7600083836118b7565b6001600360008473ffffffffffffffffffffffffffffffffffffffff1673ffffffffffffffffffffffffffffffffffffffff16815260200190815260200160002060008282546114479190612a7c565b92505081905550816002600083815260200190815260200160002060006101000a81548173ffffffffffffffffffffffffffffffffffffffff021916908373ffffffffffffffffffffffffffffffffffffffff160217905550808273ffffffffffffffffffffffffffffffffffffffff16600073ffffffffffffffffffffffffffffffffffffffff167fddf252ad1be2c89b69c2b068fc378daa952ba7f163c4a11628f55a4df523b3ef60405160405180910390a4611508600083836118bc565b5050565b8173ffffffffffffffffffffffffffffffffffffffff168373ffffffffffffffffffffffffffffffffffffffff160361157a576040517f08c379a000000000000000000000000000000000000000000000000000000000815260040161157190612bd4565b60405180910390fd5b80600560008573ffffffffffffffffffffffffffffffffffffffff1673ffffffffffffffffffffffffffffffffffffffff16815260200190815260200160002060008473ffffffffffffffffffffffffffffffffffffffff1673ffffffffffffffffffffffffffffffffffffffff16815260200190815260200160002060006101000a81548160ff0219169083151502179055508173ffffffffffffffffffffffffffffffffffffffff168373ffffffffffffffffffffffffffffffffffffffff167f17307eab39ab6107e8899845ad3d59bd9653f200f220920489ca2b5937696c318360405161166b9190611b1f565b60405180910390a3505050565b6116838484846110cd565b61168f848484846118c1565b6116ce576040517f08c379a00000000000000000000000000000000000000000000000000000000081526004016116c590612c66565b60405180910390fd5b50505050565b606060405180602001604052806000815250905090565b606060008203611732576040518060400160405280600181526020017f30000000000000000000000000000000000000000000000000000000000000008152509050611846565b600082905060005b6000821461176457808061174d90612c86565b915050600a8261175d9190612cfd565b915061173a565b60008167ffffffffffffffff8111156117805761177f611e0b565b5b6040519080825280601f01601f1916602001820160405280156117b25781602001600182028036833780820191505090505b5090505b6000851461183f576001826117cb91906124b6565b9150600a856117da9190612d2e565b60306117e69190612a7c565b60f81b8183815181106117fc576117fb612d5f565b5b60200101907effffffffffffffffffffffffffffffffffffffffffffffffffffffffffffff1916908160001a905350600a856118389190612cfd565b94506117b6565b8093505050505b919050565b60008073ffffffffffffffffffffffffffffffffffffffff166002600084815260200190815260200160002060009054906101000a900473ffffffffffffffffffffffffffffffffffffffff1673ffffffffffffffffffffffffffffffffffffffff1614159050919050565b505050565b505050565b60006118e28473ffffffffffffffffffffffffffffffffffffffff16611a48565b15611a3b578373ffffffffffffffffffffffffffffffffffffffff1663150b7a0261190b610f77565b8786866040518563ffffffff1660e01b815260040161192d9493929190612de3565b6020604051808303816000875af192505050801561196957506040513d601f19601f820116820180604052508101906119669190612e44565b60015b6119eb573d8060008114611999576040519150601f19603f3d011682016040523d82523d6000602084013e61199e565b606091505b5060008151036119e3576040517f08c379a00000000000000000000000000000000000000000000000000000000081526004016119da90612c66565b60405180910390fd5b805181602001fd5b63150b7a0260e01b7bffffffffffffffffffffffffffffffffffffffffffffffffffffffff1916817bffffffffffffffffffffffffffffffffffffffffffffffffffffffff191614915050611a40565b600190505b949350505050565b6000808273ffffffffffffffffffffffffffffffffffffffff163b119050919050565b6000604051905090565b600080fd5b600080fd5b60007fffffffff0000000000000000000000000000000000000000000000000000000082169050919050565b611ab481611a7f565b8114611abf57600080fd5b50565b600081359050611ad181611aab565b92915050565b600060208284031215611aed57611aec611a75565b5b6000611afb84828501611ac2565b91505092915050565b60008115159050919050565b611b1981611b04565b82525050565b6000602082019050611b346000830184611b10565b92915050565b6000819050919050565b611b4d81611b3a565b8114611b5857600080fd5b50565b600081359050611b6a81611b44565b92915050565b600060208284031215611b8657611b85611a75565b5b6000611b9484828501611b5b565b91505092915050565b611ba681611b3a565b82525050565b6000602082019050611bc16000830184611b9d565b92915050565b600081519050919050565b600082825260208201905092915050565b60005b83811015611c01578082015181840152602081019050611be6565b60008484015250505050565b6000601f19601f8301169050919050565b6000611c2982611bc7565b611c338185611bd2565b9350611c43818560208601611be3565b611c4c81611c0d565b840191505092915050565b60006020820190508181036000830152611c718184611c1e565b905092915050565b600073ffffffffffffffffffffffffffffffffffffffff82169050919050565b6000611ca482611c79565b9050919050565b611cb481611c99565b82525050565b6000602082019050611ccf6000830184611cab565b92915050565b611cde81611c99565b8114611ce957600080fd5b50565b600081359050611cfb81611cd5565b92915050565b60008060408385031215611d1857611d17611a75565b5b6000611d2685828601611cec565b9250506020611d3785828601611b5b565b9150509250929050565b600080600060608486031215611d5a57611d59611a75565b5b6000611d6886828701611cec565b9350506020611d7986828701611cec565b9250506040611d8a86828701611b5b565b9150509250925092565b60008060408385031215611dab57611daa611a75565b5b6000611db985828601611b5b565b9250506020611dca85828601611b5b565b9150509250929050565b600060208284031215611dea57611de9611a75565b5b6000611df884828501611cec565b91505092915050565b600080fd5b600080fd5b7f4e487b7100000000000000000000000000000000000000000000000000000000600052604160045260246000fd5b611e4382611c0d565b810181811067ffffffffffffffff82111715611e6257611e61611e0b565b5b80604052505050565b6000611e75611a6b565b9050611e818282611e3a565b919050565b600067ffffffffffffffff821115611ea157611ea0611e0b565b5b611eaa82611c0d565b9050602081019050919050565b82818337600083830152505050565b6000611ed9611ed484611e86565b611e6b565b905082815260208101848484011115611ef557611ef4611e06565b5b611f00848285611eb7565b509392505050565b600082601f830112611f1d57611f1c611e01565b5b8135611f2d848260208601611ec6565b91505092915050565b60008060408385031215611f4d57611f4c611a75565b5b600083013567ffffffffffffffff811115611f6b57611f6a611a7a565b5b611f7785828601611f08565b9250506020611f8885828601611b5b565b9150509250929050565b611f9b81611b04565b8114611fa657600080fd5b50565b600081359050611fb881611f92565b92915050565b60008060408385031215611fd557611fd4611a75565b5b6000611fe385828601611cec565b9250506020611ff485828601611fa9565b9150509250929050565b600067ffffffffffffffff82111561201957612018611e0b565b5b61202282611c0d565b9050602081019050919050565b600061204261203d84611ffe565b611e6b565b90508281526020810184848401111561205e5761205d611e06565b5b612069848285611eb7565b509392505050565b600082601f83011261208657612085611e01565b5b813561209684826020860161202f565b91505092915050565b600080600080608085870312156120b9576120b8611a75565b5b60006120c787828801611cec565b94505060206120d887828801611cec565b93505060406120e987828801611b5b565b925050606085013567ffffffffffffffff81111561210a57612109611a7a565b5b61211687828801612071565b91505092959194509250565b6000806040838503121561213957612138611a75565b5b600061214785828601611cec565b925050602061215885828601611cec565b9150509250929050565b7f4e487b7100000000000000000000000000000000000000000000000000000000600052602260045260246000fd5b600060028204905060018216806121a957607f821691505b6020821081036121bc576121bb612162565b5b50919050565b7f4552433732313a20617070726f76616c20746f2063757272656e74206f776e6560008201527f7200000000000000000000000000000000000000000000000000000000000000602082015250565b600061221e602183611bd2565b9150612229826121c2565b604082019050919050565b6000602082019050818103600083015261224d81612211565b9050919050565b7f4552433732313a20617070726f76652063616c6c6572206973206e6f7420746f60008201527f6b656e206f776e6572206e6f7220617070726f76656420666f7220616c6c0000602082015250565b60006122b0603e83611bd2565b91506122bb82612254565b604082019050919050565b600060208201905081810360008301526122df816122a3565b9050919050565b7f4552433732313a2063616c6c6572206973206e6f7420746f6b656e206f776e6560008201527f72206e6f7220617070726f766564000000000000000000000000000000000000602082015250565b6000612342602e83611bd2565b915061234d826122e6565b604082019050919050565b6000602082019050818103600083015261237181612335565b9050919050565b7f54686520537461722073686f756c6420626520757020666f722073616c650000600082015250565b60006123ae601e83611bd2565b91506123b982612378565b602082019050919050565b600060208201905081810360008301526123dd816123a1565b9050919050565b7f596f75206e65656420746f206861766520656e6f756768204574686572000000600082015250565b600061241a601d83611bd2565b9150612425826123e4565b602082019050919050565b600060208201905081810360008301526124498161240d565b9050919050565b60006060820190506124656000830186611cab565b6124726020830185611cab565b61247f6040830184611b9d565b949350505050565b7f4e487b7100000000000000000000000000000000000000000000000000000000600052601160045260246000fd5b60006124c182611b3a565b91506124cc83611b3a565b92508282039050818111156124e4576124e3612487565b5b92915050565b7f596f752063616e27742073616c6520746865205374617220796f7520646f6e2760008201527f74206f776e656400000000000000000000000000000000000000000000000000602082015250565b6000612546602783611bd2565b9150612551826124ea565b604082019050919050565b6000602082019050818103600083015261257581612539565b9050919050565b7f4552433732313a20696e76616c696420746f6b656e2049440000000000000000600082015250565b60006125b2601883611bd2565b91506125bd8261257c565b602082019050919050565b600060208201905081810360008301526125e1816125a5565b9050919050565b7f4552433732313a2061646472657373207a65726f206973206e6f74206120766160008201527f6c6964206f776e65720000000000000000000000000000000000000000000000602082015250565b6000612644602983611bd2565b915061264f826125e8565b604082019050919050565b6000602082019050818103600083015261267381612637565b9050919050565b60008190508160005260206000209050919050565b60006020601f8301049050919050565b600082821b905092915050565b6000600883026126dc7fffffffffffffffffffffffffffffffffffffffffffffffffffffffffffffffff8261269f565b6126e6868361269f565b95508019841693508086168417925050509392505050565b6000819050919050565b600061272361271e61271984611b3a565b6126fe565b611b3a565b9050919050565b6000819050919050565b61273d83612708565b6127516127498261272a565b8484546126ac565b825550505050565b600090565b612766612759565b612771818484612734565b505050565b5b818110156127955761278a60008261275e565b600181019050612777565b5050565b601f8211156127da576127ab8161267a565b6127b48461268f565b810160208510156127c3578190505b6127d76127cf8561268f565b830182612776565b50505b505050565b600082821c905092915050565b60006127fd600019846008026127df565b1980831691505092915050565b600061281683836127ec565b9150826002028217905092915050565b61282f82611bc7565b67ffffffffffffffff81111561284857612847611e0b565b5b6128528254612191565b61285d828285612799565b600060209050601f831160018114612890576000841561287e578287015190505b612888858261280a565b8655506128f0565b601f19841661289e8661267a565b60005b828110156128c6578489015182556001820191506020850194506020810190506128a1565b868310156128e357848901516128df601f8916826127ec565b8355505b6001600288020188555050505b505050505050565b600081905092915050565b600061290e82611bc7565b61291881856128f8565b9350612928818560208601611be3565b80840191505092915050565b60006129408285612903565b915061294c8284612903565b91508190509392505050565b7f4552433732313a207472616e736665722066726f6d20696e636f72726563742060008201527f6f776e6572000000000000000000000000000000000000000000000000000000602082015250565b60006129b4602583611bd2565b91506129bf82612958565b604082019050919050565b600060208201905081810360008301526129e3816129a7565b9050919050565b7f4552433732313a207472616e7366657220746f20746865207a65726f2061646460008201527f7265737300000000000000000000000000000000000000000000000000000000602082015250565b6000612a46602483611bd2565b9150612a51826129ea565b604082019050919050565b60006020820190508181036000830152612a7581612a39565b9050919050565b6000612a8782611b3a565b9150612a9283611b3a565b9250828201905080821115612aaa57612aa9612487565b5b92915050565b7f4552433732313a206d696e7420746f20746865207a65726f2061646472657373600082015250565b6000612ae6602083611bd2565b9150612af182612ab0565b602082019050919050565b60006020820190508181036000830152612b1581612ad9565b9050919050565b7f4552433732313a20746f6b656e20616c7265616479206d696e74656400000000600082015250565b6000612b52601c83611bd2565b9150612b5d82612b1c565b602082019050919050565b60006020820190508181036000830152612b8181612b45565b9050919050565b7f4552433732313a20617070726f766520746f2063616c6c657200000000000000600082015250565b6000612bbe601983611bd2565b9150612bc982612b88565b602082019050919050565b60006020820190508181036000830152612bed81612bb1565b9050919050565b7f4552433732313a207472616e7366657220746f206e6f6e20455243373231526560008201527f63656976657220696d706c656d656e7465720000000000000000000000000000602082015250565b6000612c50603283611bd2565b9150612c5b82612bf4565b604082019050919050565b60006020820190508181036000830152612c7f81612c43565b9050919050565b6000612c9182611b3a565b91507fffffffffffffffffffffffffffffffffffffffffffffffffffffffffffffffff8203612cc357612cc2612487565b5b600182019050919050565b7f4e487b7100000000000000000000000000000000000000000000000000000000600052601260045260246000fd5b6000612d0882611b3a565b9150612d1383611b3a565b925082612d2357612d22612cce565b5b828204905092915050565b6000612d3982611b3a565b9150612d4483611b3a565b925082612d5457612d53612cce565b5b828206905092915050565b7f4e487b7100000000000000000000000000000000000000000000000000000000600052603260045260246000fd5b600081519050919050565b600082825260208201905092915050565b6000612db582612d8e565b612dbf8185612d99565b9350612dcf818560208601611be3565b612dd881611c0d565b840191505092915050565b6000608082019050612df86000830187611cab565b612e056020830186611cab565b612e126040830185611b9d565b8181036060830152612e248184612daa565b905095945050505050565b600081519050612e3e81611aab565b92915050565b600060208284031215612e5a57612e59611a75565b5b6000612e6884828501612e2f565b9150509291505056fea26469706673582212207c3e4150036068efd7fcca0a3bba1579b78309497e1769b94eb224aac6d2791a64736f6c63430008100033",
  "immutableReferences": {},
  "source": "// SPDX-License-Identifier: MIT\npragma solidity ^0.8.0;\n\nimport \"@openzeppelin/contracts/token/ERC721/ERC721.sol\";\nimport \"@openzeppelin/contracts/token/ERC721/IERC721.sol\";\n\ncontract StarNotaryV2 is ERC721 {\n\n    struct Star {\n        string name;\n    }\n\n    mapping(uint256 => Star) public tokenIdToStarInfo;\n    mapping(uint256 => uint256) public starsForSale;\n\n    // Constructor\n    constructor() ERC721(\"StarNotary Version 2 - ERC-721\", \"SN2\") {\n    }\n\n    // Create Star using the Struct\n    function createStar(string memory _name, uint256 _tokenId) public {\n        // Star is an struct so we are creating a new Star\n        Star memory newStar = Star(_name);\n        // Creating in memory the Star -> tokenId mapping\n        tokenIdToStarInfo[_tokenId] = newStar; \n        // _mint assign the the star with _tokenId to the sender address (ownership)\n        _mint(msg.sender, _tokenId); \n    }\n\n    // Putting an Star for sale (Adding the star tokenid into the mapping starsForSale, first verify that the sender is the owner)\n    function putStarUpForSale(uint256 _tokenId, uint256 _price) public {\n        require(ownerOf(_tokenId) == msg.sender, \"You can't sale the Star you don't owned\");\n        starsForSale[_tokenId] = _price;\n        approve(address(this), _tokenId);\n    }\n\n    // Buy a star token\n    function buyStar(uint256 _tokenId) public  payable {\n        require(starsForSale[_tokenId] > 0, \"The Star should be up for sale\");\n        uint256 starCost = starsForSale[_tokenId];\n        address ownerAddress = ownerOf(_tokenId);\n        require(msg.value > starCost, \"You need to have enough Ether\");\n        ERC721(address(this)).transferFrom(ownerAddress, msg.sender, _tokenId);\n        payable(ownerAddress).transfer(starCost);\n        if(msg.value > starCost) {\n            payable(msg.sender).transfer(msg.value - starCost);\n        }\n    }\n}",
  "sourcePath": "/home/isma/Desktop/code/blockchain/starNotary/contracts/StarNotaryV2.sol",
  "compiler": {
    "name": "solc",
    "version": "0.8.16+commit.07a7930e.Emscripten.clang"
  },
  "schemaVersion": "3.4.8",
  "updatedAt": "2022-08-13T09:08:43.537Z",
  "devdoc": {
    "kind": "dev",
    "methods": {
      "approve(address,uint256)": {
        "details": "See {IERC721-approve}."
      },
      "balanceOf(address)": {
        "details": "See {IERC721-balanceOf}."
      },
      "getApproved(uint256)": {
        "details": "See {IERC721-getApproved}."
      },
      "isApprovedForAll(address,address)": {
        "details": "See {IERC721-isApprovedForAll}."
      },
      "name()": {
        "details": "See {IERC721Metadata-name}."
      },
      "ownerOf(uint256)": {
        "details": "See {IERC721-ownerOf}."
      },
      "safeTransferFrom(address,address,uint256)": {
        "details": "See {IERC721-safeTransferFrom}."
      },
      "safeTransferFrom(address,address,uint256,bytes)": {
        "details": "See {IERC721-safeTransferFrom}."
      },
      "setApprovalForAll(address,bool)": {
        "details": "See {IERC721-setApprovalForAll}."
      },
      "supportsInterface(bytes4)": {
        "details": "See {IERC165-supportsInterface}."
      },
      "symbol()": {
        "details": "See {IERC721Metadata-symbol}."
      },
      "tokenURI(uint256)": {
        "details": "See {IERC721Metadata-tokenURI}."
      },
      "transferFrom(address,address,uint256)": {
        "details": "See {IERC721-transferFrom}."
      }
    },
    "version": 1
  },
  "userdoc": {
    "kind": "user",
    "methods": {},
    "version": 1
  }
}